{
  "address": "0x541d56b327e81ca73198d4023B3cD3D087529c02",
  "abi": [
    {
      "inputs": [],
      "stateMutability": "nonpayable",
      "type": "constructor"
    },
    {
      "inputs": [
        {
          "internalType": "address",
          "name": "owner",
          "type": "address"
        }
      ],
      "name": "OwnableInvalidOwner",
      "type": "error"
    },
    {
      "inputs": [
        {
          "internalType": "address",
          "name": "account",
          "type": "address"
        }
      ],
      "name": "OwnableUnauthorizedAccount",
      "type": "error"
    },
    {
      "inputs": [],
      "name": "ReentrancyGuardReentrantCall",
      "type": "error"
    },
    {
      "anonymous": false,
      "inputs": [
        {
          "indexed": false,
          "internalType": "uint256",
          "name": "aiGenerationFee",
          "type": "uint256"
        },
        {
          "indexed": false,
          "internalType": "uint256",
          "name": "storageFee",
          "type": "uint256"
        },
        {
          "indexed": false,
          "internalType": "uint256",
          "name": "aiAndStorageFee",
          "type": "uint256"
        },
        {
          "indexed": false,
          "internalType": "uint256",
          "name": "mintFee",
          "type": "uint256"
        },
        {
          "indexed": false,
          "internalType": "uint256",
          "name": "remixFee",
          "type": "uint256"
        }
      ],
      "name": "FeesUpdated",
      "type": "event"
    },
    {
      "anonymous": false,
      "inputs": [
        {
          "indexed": true,
          "internalType": "address",
          "name": "previousOwner",
          "type": "address"
        },
        {
          "indexed": true,
          "internalType": "address",
          "name": "newOwner",
          "type": "address"
        }
      ],
      "name": "OwnershipTransferred",
      "type": "event"
    },
    {
      "anonymous": false,
      "inputs": [
        {
          "indexed": true,
          "internalType": "address",
          "name": "user",
          "type": "address"
        },
        {
          "indexed": false,
          "internalType": "uint256",
          "name": "amount",
          "type": "uint256"
        },
        {
          "indexed": false,
          "internalType": "string",
          "name": "serviceType",
          "type": "string"
        },
        {
          "indexed": false,
          "internalType": "bytes32",
          "name": "paymentId",
          "type": "bytes32"
        }
      ],
      "name": "PaymentReceived",
      "type": "event"
    },
    {
      "anonymous": false,
      "inputs": [
        {
          "indexed": true,
          "internalType": "bytes32",
          "name": "paymentId",
          "type": "bytes32"
        },
        {
          "indexed": true,
          "internalType": "address",
          "name": "user",
          "type": "address"
        },
        {
          "indexed": false,
          "internalType": "uint256",
          "name": "amount",
          "type": "uint256"
        }
      ],
      "name": "RefundIssued",
      "type": "event"
    },
    {
      "anonymous": false,
      "inputs": [
        {
          "indexed": true,
          "internalType": "bytes32",
          "name": "paymentId",
          "type": "bytes32"
        },
        {
          "indexed": true,
          "internalType": "address",
          "name": "user",
          "type": "address"
        },
        {
          "indexed": false,
          "internalType": "string",
          "name": "serviceType",
          "type": "string"
        }
      ],
      "name": "ServiceCompleted",
      "type": "event"
    },
    {
      "inputs": [],
      "name": "aiAndStorageFee",
      "outputs": [
        {
          "internalType": "uint256",
          "name": "",
          "type": "uint256"
        }
      ],
      "stateMutability": "view",
      "type": "function"
    },
    {
      "inputs": [],
      "name": "aiGenerationFee",
      "outputs": [
        {
          "internalType": "uint256",
          "name": "",
          "type": "uint256"
        }
      ],
      "stateMutability": "view",
      "type": "function"
    },
    {
      "inputs": [
        {
          "internalType": "bytes32",
          "name": "_paymentId",
          "type": "bytes32"
        }
      ],
      "name": "completeService",
      "outputs": [],
      "stateMutability": "nonpayable",
      "type": "function"
    },
    {
      "inputs": [],
      "name": "getAllFees",
      "outputs": [
        {
          "internalType": "uint256",
          "name": "aiFee",
          "type": "uint256"
        },
        {
          "internalType": "uint256",
          "name": "storageFeeValue",
          "type": "uint256"
        },
        {
          "internalType": "uint256",
          "name": "aiAndStorageFeeValue",
          "type": "uint256"
        },
        {
          "internalType": "uint256",
          "name": "mintFeeValue",
          "type": "uint256"
        },
        {
          "internalType": "uint256",
          "name": "remixFeeValue",
          "type": "uint256"
        }
      ],
      "stateMutability": "view",
      "type": "function"
    },
    {
      "inputs": [],
      "name": "getContractBalance",
      "outputs": [
        {
          "internalType": "uint256",
          "name": "",
          "type": "uint256"
        }
      ],
      "stateMutability": "view",
      "type": "function"
    },
    {
      "inputs": [
        {
          "internalType": "string",
          "name": "_serviceType",
          "type": "string"
        }
      ],
      "name": "getServiceFee",
      "outputs": [
        {
          "internalType": "uint256",
          "name": "",
          "type": "uint256"
        }
      ],
      "stateMutability": "view",
      "type": "function"
    },
    {
      "inputs": [],
      "name": "mintFee",
      "outputs": [
        {
          "internalType": "uint256",
          "name": "",
          "type": "uint256"
        }
      ],
      "stateMutability": "view",
      "type": "function"
    },
    {
      "inputs": [],
      "name": "owner",
      "outputs": [
        {
          "internalType": "address",
          "name": "",
          "type": "address"
        }
      ],
      "stateMutability": "view",
      "type": "function"
    },
    {
      "inputs": [
        {
          "internalType": "string",
          "name": "_serviceType",
          "type": "string"
        }
      ],
      "name": "payForService",
      "outputs": [
        {
          "internalType": "bytes32",
          "name": "",
          "type": "bytes32"
        }
      ],
      "stateMutability": "payable",
      "type": "function"
    },
    {
      "inputs": [
        {
          "internalType": "bytes32",
          "name": "",
          "type": "bytes32"
        }
      ],
      "name": "payments",
      "outputs": [
        {
          "internalType": "address",
          "name": "user",
          "type": "address"
        },
        {
          "internalType": "uint256",
          "name": "amount",
          "type": "uint256"
        },
        {
          "internalType": "string",
          "name": "serviceType",
          "type": "string"
        },
        {
          "internalType": "uint256",
          "name": "timestamp",
          "type": "uint256"
        },
        {
          "internalType": "bool",
          "name": "completed",
          "type": "bool"
        }
      ],
      "stateMutability": "view",
      "type": "function"
    },
    {
      "inputs": [
        {
          "internalType": "bytes32",
          "name": "_paymentId",
          "type": "bytes32"
        }
      ],
      "name": "refundPayment",
      "outputs": [],
      "stateMutability": "nonpayable",
      "type": "function"
    },
    {
      "inputs": [],
      "name": "remixFee",
      "outputs": [
        {
          "internalType": "uint256",
          "name": "",
          "type": "uint256"
        }
      ],
      "stateMutability": "view",
      "type": "function"
    },
    {
      "inputs": [],
      "name": "renounceOwnership",
      "outputs": [],
      "stateMutability": "nonpayable",
      "type": "function"
    },
    {
      "inputs": [],
      "name": "storageFee",
      "outputs": [
        {
          "internalType": "uint256",
          "name": "",
          "type": "uint256"
        }
      ],
      "stateMutability": "view",
      "type": "function"
    },
    {
      "inputs": [
        {
          "internalType": "address",
          "name": "newOwner",
          "type": "address"
        }
      ],
      "name": "transferOwnership",
      "outputs": [],
      "stateMutability": "nonpayable",
      "type": "function"
    },
    {
      "inputs": [
        {
          "internalType": "uint256",
          "name": "_aiFee",
          "type": "uint256"
        },
        {
          "internalType": "uint256",
          "name": "_storageFee",
          "type": "uint256"
        },
        {
          "internalType": "uint256",
          "name": "_aiAndStorageFee",
          "type": "uint256"
        },
        {
          "internalType": "uint256",
          "name": "_mintFee",
          "type": "uint256"
        },
        {
          "internalType": "uint256",
          "name": "_remixFee",
          "type": "uint256"
        }
      ],
      "name": "updateFees",
      "outputs": [],
      "stateMutability": "nonpayable",
      "type": "function"
    },
    {
      "inputs": [
        {
          "internalType": "address",
          "name": "",
          "type": "address"
        }
      ],
      "name": "userBalances",
      "outputs": [
        {
          "internalType": "uint256",
          "name": "",
          "type": "uint256"
        }
      ],
      "stateMutability": "view",
      "type": "function"
    },
    {
      "inputs": [],
      "name": "withdrawFees",
      "outputs": [],
      "stateMutability": "nonpayable",
      "type": "function"
    }
  ],
  "transactionHash": "0x1852066a3a5b8c3a3d04f29acd9a58ec3370cbc958d1da54ea760a69446a9af5",
  "args": [],
  "numDeployments": 3,
  "solcInputHash": "dd1154826adb312e1c911f531197a25a",
  "bytecode": "0x60806040526611c37937e0800060025566038d7ea4c68000600355661550f7dca7000060045566038d7ea4c680006005556601c6bf526340006006553480156045575f5ffd5b503380606a57604051631e4fbdf760e01b81525f600482015260240160405180910390fd5b607181607a565b506001805560c9565b5f80546001600160a01b038381166001600160a01b0319831681178455604051919092169283917f8be0079c531659141344cd1fd0a4f28419497f9722a3daafe3b4186f6b6457e09190a35050565b61124a806100d65f395ff3fe608060405260043610610105575f3560e01c8063715018a611610092578063b20feaaf11610062578063b20feaaf1461028c578063b4f5fa87146102cf578063de8f8b3f146102e4578063e747657014610303578063f2fde38b14610318575f5ffd5b8063715018a61461022a578063773f0b181461023e5780638da5cb5b14610253578063a9ce953a14610279575f5ffd5b806326224c64116100d857806326224c64146101995780633d558a21146101c4578063457ffca2146101e5578063476343ee146102045780636f9fb98a14610218575f5ffd5b80630716326d1461010957806313966db514610142578063164e37551461016557806318274da41461017a575b5f5ffd5b348015610114575f5ffd5b50610128610123366004610dd1565b610337565b604051610139959493929190610e16565b60405180910390f35b34801561014d575f5ffd5b5061015760055481565b604051908152602001610139565b348015610170575f5ffd5b5061015760025481565b348015610185575f5ffd5b50610157610194366004610e69565b6103f9565b3480156101a4575f5ffd5b506101576101b3366004610f1c565b60076020525f908152604090205481565b3480156101cf575f5ffd5b506101e36101de366004610dd1565b610627565b005b3480156101f0575f5ffd5b506101e36101ff366004610f49565b61074d565b34801561020f575f5ffd5b506101e36107c4565b348015610223575f5ffd5b5047610157565b348015610235575f5ffd5b506101e3610885565b348015610249575f5ffd5b5061015760035481565b34801561025e575f5ffd5b505f546040516001600160a01b039091168152602001610139565b610157610287366004610e69565b610898565b348015610297575f5ffd5b50600254600354600454600554600654604080519586526020860194909452928401919091526060830152608082015260a001610139565b3480156102da575f5ffd5b5061015760045481565b3480156102ef575f5ffd5b506101e36102fe366004610dd1565b610a85565b34801561030e575f5ffd5b5061015760065481565b348015610323575f5ffd5b506101e3610332366004610f1c565b610cf2565b60086020525f90815260409020805460018201546002830180546001600160a01b0390931693919261036890610f80565b80601f016020809104026020016040519081016040528092919081815260200182805461039490610f80565b80156103df5780601f106103b6576101008083540402835291602001916103df565b820191905f5260205f20905b8154815290600101906020018083116103c257829003601f168201915b50505050600383015460049093015491929160ff16905085565b6040516c30b4afb3b2b732b930ba34b7b760991b60208201525f90602d01604051602081830303815290604052805190602001208260405160200161043e9190610fcf565b604051602081830303815290604052805190602001200361046157505060025490565b6040516673746f7261676560c81b6020820152602701604051602081830303815290604052805190602001208260405160200161049e9190610fcf565b60405160208183030381529060405280519060200120036104c157505060035490565b6040516d61695f616e645f73746f7261676560901b6020820152602e0160405160208183030381529060405280519060200120826040516020016105059190610fcf565b604051602081830303815290604052805190602001200361052857505060045490565b604051631b5a5b9d60e21b602082015260240160405160208183030381529060405280519060200120826040516020016105629190610fcf565b604051602081830303815290604052805190602001200361058557505060055490565b604051640e4cadad2f60db1b602082015260250160405160208183030381529060405280519060200120826040516020016105c09190610fcf565b60405160208183030381529060405280519060200120036105e357505060065490565b60405162461bcd60e51b8152602060048201526014602482015273556e6b6e6f776e2073657276696365207479706560601b60448201526064015b60405180910390fd5b61062f610d2c565b5f818152600860205260409020546001600160a01b03166106865760405162461bcd60e51b815260206004820152601160248201527014185e5b595b9d081b9bdd08199bdd5b99607a1b604482015260640161061e565b5f8181526008602052604090206004015460ff16156106e35760405162461bcd60e51b815260206004820152601960248201527814d95c9d9a58d948185b1c9958591e4818dbdb5c1b195d1959603a1b604482015260640161061e565b5f818152600860205260409081902060048101805460ff19166001179055805491516001600160a01b039092169183917f7b35762f349c90fbc5487e255491e38e9ff70ef1b20941a93601fc3ab26a99da916107429160020190610fda565b60405180910390a350565b610755610d2c565b60028590556003849055600483905560058290556006819055604080518681526020810186905290810184905260608101839052608081018290527f96b67df2c4648b38ada47da86f80d0a256df93150752a7b365ca487cab934e649060a00160405180910390a15050505050565b6107cc610d2c565b47806108115760405162461bcd60e51b81526020600482015260146024820152734e6f2066756e647320746f20776974686472617760601b604482015260640161061e565b5f80546040516001600160a01b039091169083908381818185875af1925050503d805f811461085b576040519150601f19603f3d011682016040523d82523d5f602084013e610860565b606091505b50509050806108815760405162461bcd60e51b815260040161061e90611061565b5050565b61088d610d2c565b6108965f610d58565b565b5f6108a1610da7565b5f6108ab836103f9565b9050803410156108f45760405162461bcd60e51b8152602060048201526014602482015273125b9cdd59999a58da595b9d081c185e5b595b9d60621b604482015260640161061e565b5f3384424460405160200161090c949392919061108a565b60408051808303601f19018152828252805160209182012060a084018352338452348285019081528484018981524260608701525f60808701819052838152600890945293909220845181546001600160a01b0319166001600160a01b0390911617815591516001830155915191935090600282019061098c908261110c565b50606082015160038201556080909101516004909101805460ff191691151591909117905534821015610a2f575f6109c483346111c7565b6040519091505f90339083908381818185875af1925050503d805f8114610a06576040519150601f19603f3d011682016040523d82523d5f602084013e610a0b565b606091505b5050905080610a2c5760405162461bcd60e51b815260040161061e90611061565b50505b336001600160a01b03167f08ff71dfa71080c2a3b2472069ed760b8d6dab569264c3601cb6b6ad70d13735838684604051610a6c939291906111ec565b60405180910390a2915050610a8060018055565b919050565b610a8d610d2c565b610a95610da7565b5f818152600860209081526040808320815160a08101835281546001600160a01b031681526001820154938101939093526002810180549192840191610ada90610f80565b80601f0160208091040260200160405190810160405280929190818152602001828054610b0690610f80565b8015610b515780601f10610b2857610100808354040283529160200191610b51565b820191905f5260205f20905b815481529060010190602001808311610b3457829003601f168201915b50505091835250506003820154602082015260049091015460ff16151560409091015280519091506001600160a01b0316610bc25760405162461bcd60e51b815260206004820152601160248201527014185e5b595b9d081b9bdd08199bdd5b99607a1b604482015260640161061e565b806080015115610c105760405162461bcd60e51b815260206004820152601960248201527814d95c9d9a58d948185b1c9958591e4818dbdb5c1b195d1959603a1b604482015260640161061e565b805160208201516040515f926001600160a01b031691908381818185875af1925050503d805f8114610c5d576040519150601f19603f3d011682016040523d82523d5f602084013e610c62565b606091505b5050905080610c835760405162461bcd60e51b815260040161061e90611061565b5f83815260086020908152604091829020600401805460ff1916600117905583518482015192519283526001600160a01b03169185917ff8590cd6b8c44be7a2bc57131f10e203ec5f7d7f2f761e1508a8cc964ecb9eb7910160405180910390a35050610cef60018055565b50565b610cfa610d2c565b6001600160a01b038116610d2357604051631e4fbdf760e01b81525f600482015260240161061e565b610cef81610d58565b5f546001600160a01b031633146108965760405163118cdaa760e01b815233600482015260240161061e565b5f80546001600160a01b038381166001600160a01b0319831681178455604051919092169283917f8be0079c531659141344cd1fd0a4f28419497f9722a3daafe3b4186f6b6457e09190a35050565b600260015403610dca57604051633ee5aeb560e01b815260040160405180910390fd5b6002600155565b5f60208284031215610de1575f5ffd5b5035919050565b5f81518084528060208401602086015e5f602082860101526020601f19601f83011685010191505092915050565b60018060a01b038616815284602082015260a060408201525f610e3c60a0830186610de8565b6060830194909452509015156080909101529392505050565b634e487b7160e01b5f52604160045260245ffd5b5f60208284031215610e79575f5ffd5b813567ffffffffffffffff811115610e8f575f5ffd5b8201601f81018413610e9f575f5ffd5b803567ffffffffffffffff811115610eb957610eb9610e55565b604051601f8201601f19908116603f0116810167ffffffffffffffff81118282101715610ee857610ee8610e55565b604052818152828201602001861015610eff575f5ffd5b816020840160208301375f91810160200191909152949350505050565b5f60208284031215610f2c575f5ffd5b81356001600160a01b0381168114610f42575f5ffd5b9392505050565b5f5f5f5f5f60a08688031215610f5d575f5ffd5b505083359560208501359550604085013594606081013594506080013592509050565b600181811c90821680610f9457607f821691505b602082108103610fb257634e487b7160e01b5f52602260045260245ffd5b50919050565b5f81518060208401855e5f93019283525090919050565b5f610f428284610fb8565b602081525f5f8354610feb81610f80565b806020860152600182165f8114611009576001811461102557611056565b60ff1983166040870152604082151560051b8701019350611056565b865f5260205f205f5b8381101561104d5781548882016040015260019091019060200161102e565b87016040019450505b509195945050505050565b6020808252600f908201526e151c985b9cd9995c8819985a5b1959608a1b604082015260600190565b6bffffffffffffffffffffffff198560601b1681525f6110ad6014830186610fb8565b9384525050602082015260400192915050565b601f82111561110757805f5260205f20601f840160051c810160208510156110e55750805b601f840160051c820191505b81811015611104575f81556001016110f1565b50505b505050565b815167ffffffffffffffff81111561112657611126610e55565b61113a816111348454610f80565b846110c0565b6020601f82116001811461116c575f83156111555750848201515b5f19600385901b1c1916600184901b178455611104565b5f84815260208120601f198516915b8281101561119b578785015182556020948501946001909201910161117b565b50848210156111b857868401515f19600387901b60f8161c191681555b50505050600190811b01905550565b818103818111156111e657634e487b7160e01b5f52601160045260245ffd5b92915050565b838152606060208201525f6112046060830185610de8565b905082604083015294935050505056fea264697066735822122086b49d860a31b19ab55fffa53925037e47f7935268d068089392bf73ab2e8a1264736f6c634300081c0033",
  "devdoc": {
    "errors": {
      "OwnableInvalidOwner(address)": [
        {
          "details": "The owner is not a valid owner account. (eg. `address(0)`)"
        }
      ],
      "OwnableUnauthorizedAccount(address)": [
        {
          "details": "The caller account is not authorized to perform an operation."
        }
      ],
      "ReentrancyGuardReentrantCall()": [
        {
          "details": "Unauthorized reentrant call."
        }
      ]
    },
    "kind": "dev",
    "methods": {
      "completeService(bytes32)": {
        "details": "Complete a service"
      },
      "getAllFees()": {
        "details": "Get all current fees"
      },
      "getContractBalance()": {
        "details": "Get contract balance"
      },
      "getServiceFee(string)": {
        "details": "Get fee for a service"
      },
      "owner()": {
        "details": "Returns the address of the current owner."
      },
      "payForService(string)": {
        "details": "Pay for a service"
      },
      "refundPayment(bytes32)": {
        "details": "Refund a payment"
      },
      "renounceOwnership()": {
        "details": "Leaves the contract without owner. It will not be possible to call `onlyOwner` functions. Can only be called by the current owner. NOTE: Renouncing ownership will leave the contract without an owner, thereby disabling any functionality that is only available to the owner."
      },
      "transferOwnership(address)": {
        "details": "Transfers ownership of the contract to a new account (`newOwner`). Can only be called by the current owner."
      },
      "updateFees(uint256,uint256,uint256,uint256,uint256)": {
        "details": "Update service fees (owner only)"
      },
      "withdrawFees()": {
        "details": "Withdraw collected fees"
      }
    },
    "version": 1
  },
  "userdoc": {
    "kind": "user",
    "methods": {},
    "version": 1
  },
  "storageLayout": {
    "storage": [
      {
        "astId": 8,
        "contract": "contracts/PaymentHandler.sol:PaymentHandler",
        "label": "_owner",
        "offset": 0,
        "slot": "0",
        "type": "t_address"
      },
      {
        "astId": 188,
        "contract": "contracts/PaymentHandler.sol:PaymentHandler",
        "label": "_status",
        "offset": 0,
        "slot": "1",
        "type": "t_uint256"
      },
      {
        "astId": 268,
        "contract": "contracts/PaymentHandler.sol:PaymentHandler",
        "label": "aiGenerationFee",
        "offset": 0,
        "slot": "2",
        "type": "t_uint256"
      },
      {
        "astId": 271,
        "contract": "contracts/PaymentHandler.sol:PaymentHandler",
        "label": "storageFee",
        "offset": 0,
        "slot": "3",
        "type": "t_uint256"
      },
      {
        "astId": 274,
        "contract": "contracts/PaymentHandler.sol:PaymentHandler",
        "label": "aiAndStorageFee",
        "offset": 0,
        "slot": "4",
        "type": "t_uint256"
      },
      {
        "astId": 277,
        "contract": "contracts/PaymentHandler.sol:PaymentHandler",
        "label": "mintFee",
        "offset": 0,
        "slot": "5",
        "type": "t_uint256"
      },
      {
        "astId": 280,
        "contract": "contracts/PaymentHandler.sol:PaymentHandler",
        "label": "remixFee",
        "offset": 0,
        "slot": "6",
        "type": "t_uint256"
      },
      {
        "astId": 284,
        "contract": "contracts/PaymentHandler.sol:PaymentHandler",
        "label": "userBalances",
        "offset": 0,
        "slot": "7",
        "type": "t_mapping(t_address,t_uint256)"
      },
      {
        "astId": 289,
        "contract": "contracts/PaymentHandler.sol:PaymentHandler",
        "label": "payments",
        "offset": 0,
        "slot": "8",
        "type": "t_mapping(t_bytes32,t_struct(ServicePayment)265_storage)"
      }
    ],
    "types": {
      "t_address": {
        "encoding": "inplace",
        "label": "address",
        "numberOfBytes": "20"
      },
      "t_bool": {
        "encoding": "inplace",
        "label": "bool",
        "numberOfBytes": "1"
      },
      "t_bytes32": {
        "encoding": "inplace",
        "label": "bytes32",
        "numberOfBytes": "32"
      },
      "t_mapping(t_address,t_uint256)": {
        "encoding": "mapping",
        "key": "t_address",
        "label": "mapping(address => uint256)",
        "numberOfBytes": "32",
        "value": "t_uint256"
      },
      "t_mapping(t_bytes32,t_struct(ServicePayment)265_storage)": {
        "encoding": "mapping",
        "key": "t_bytes32",
        "label": "mapping(bytes32 => struct PaymentHandler.ServicePayment)",
        "numberOfBytes": "32",
        "value": "t_struct(ServicePayment)265_storage"
      },
      "t_string_storage": {
        "encoding": "bytes",
        "label": "string",
        "numberOfBytes": "32"
      },
      "t_struct(ServicePayment)265_storage": {
        "encoding": "inplace",
        "label": "struct PaymentHandler.ServicePayment",
        "members": [
          {
            "astId": 256,
            "contract": "contracts/PaymentHandler.sol:PaymentHandler",
            "label": "user",
            "offset": 0,
            "slot": "0",
            "type": "t_address"
          },
          {
            "astId": 258,
            "contract": "contracts/PaymentHandler.sol:PaymentHandler",
            "label": "amount",
            "offset": 0,
            "slot": "1",
            "type": "t_uint256"
          },
          {
            "astId": 260,
            "contract": "contracts/PaymentHandler.sol:PaymentHandler",
            "label": "serviceType",
            "offset": 0,
            "slot": "2",
            "type": "t_string_storage"
          },
          {
            "astId": 262,
            "contract": "contracts/PaymentHandler.sol:PaymentHandler",
            "label": "timestamp",
            "offset": 0,
            "slot": "3",
            "type": "t_uint256"
          },
          {
            "astId": 264,
            "contract": "contracts/PaymentHandler.sol:PaymentHandler",
            "label": "completed",
            "offset": 0,
            "slot": "4",
            "type": "t_bool"
          }
        ],
        "numberOfBytes": "160"
      },
      "t_uint256": {
        "encoding": "inplace",
        "label": "uint256",
        "numberOfBytes": "32"
      }
    }
  }
}