{
  "address": "0x7941116DD1F4B582a8A328f4cE950EeE14321042",
  "abi": [
    {
      "inputs": [],
      "stateMutability": "nonpayable",
      "type": "constructor"
    },
    {
      "inputs": [
        {
          "internalType": "address",
          "name": "owner",
          "type": "address"
        }
      ],
      "name": "OwnableInvalidOwner",
      "type": "error"
    },
    {
      "inputs": [
        {
          "internalType": "address",
          "name": "account",
          "type": "address"
        }
      ],
      "name": "OwnableUnauthorizedAccount",
      "type": "error"
    },
    {
      "inputs": [],
      "name": "ReentrancyGuardReentrantCall",
      "type": "error"
    },
    {
      "anonymous": false,
      "inputs": [
        {
          "indexed": true,
          "internalType": "address",
          "name": "previousOwner",
          "type": "address"
        },
        {
          "indexed": true,
          "internalType": "address",
          "name": "newOwner",
          "type": "address"
        }
      ],
      "name": "OwnershipTransferred",
      "type": "event"
    },
    {
      "anonymous": false,
      "inputs": [
        {
          "indexed": true,
          "internalType": "address",
          "name": "user",
          "type": "address"
        },
        {
          "indexed": false,
          "internalType": "uint256",
          "name": "amount",
          "type": "uint256"
        },
        {
          "indexed": false,
          "internalType": "string",
          "name": "serviceType",
          "type": "string"
        },
        {
          "indexed": false,
          "internalType": "bytes32",
          "name": "paymentId",
          "type": "bytes32"
        }
      ],
      "name": "PaymentReceived",
      "type": "event"
    },
    {
      "anonymous": false,
      "inputs": [
        {
          "indexed": true,
          "internalType": "bytes32",
          "name": "paymentId",
          "type": "bytes32"
        },
        {
          "indexed": true,
          "internalType": "address",
          "name": "user",
          "type": "address"
        },
        {
          "indexed": false,
          "internalType": "uint256",
          "name": "amount",
          "type": "uint256"
        }
      ],
      "name": "RefundIssued",
      "type": "event"
    },
    {
      "anonymous": false,
      "inputs": [
        {
          "indexed": true,
          "internalType": "bytes32",
          "name": "paymentId",
          "type": "bytes32"
        },
        {
          "indexed": true,
          "internalType": "address",
          "name": "user",
          "type": "address"
        },
        {
          "indexed": false,
          "internalType": "string",
          "name": "serviceType",
          "type": "string"
        }
      ],
      "name": "ServiceCompleted",
      "type": "event"
    },
    {
      "inputs": [],
      "name": "aiGenerationFee",
      "outputs": [
        {
          "internalType": "uint256",
          "name": "",
          "type": "uint256"
        }
      ],
      "stateMutability": "view",
      "type": "function"
    },
    {
      "inputs": [],
      "name": "ai_and_storage_fee",
      "outputs": [
        {
          "internalType": "uint256",
          "name": "",
          "type": "uint256"
        }
      ],
      "stateMutability": "view",
      "type": "function"
    },
    {
      "inputs": [
        {
          "internalType": "bytes32",
          "name": "_paymentId",
          "type": "bytes32"
        }
      ],
      "name": "completeService",
      "outputs": [],
      "stateMutability": "nonpayable",
      "type": "function"
    },
    {
      "inputs": [
        {
          "internalType": "string",
          "name": "_serviceType",
          "type": "string"
        }
      ],
      "name": "getServiceFee",
      "outputs": [
        {
          "internalType": "uint256",
          "name": "",
          "type": "uint256"
        }
      ],
      "stateMutability": "view",
      "type": "function"
    },
    {
      "inputs": [],
      "name": "mintFee",
      "outputs": [
        {
          "internalType": "uint256",
          "name": "",
          "type": "uint256"
        }
      ],
      "stateMutability": "view",
      "type": "function"
    },
    {
      "inputs": [],
      "name": "owner",
      "outputs": [
        {
          "internalType": "address",
          "name": "",
          "type": "address"
        }
      ],
      "stateMutability": "view",
      "type": "function"
    },
    {
      "inputs": [
        {
          "internalType": "string",
          "name": "_serviceType",
          "type": "string"
        }
      ],
      "name": "payForService",
      "outputs": [
        {
          "internalType": "bytes32",
          "name": "",
          "type": "bytes32"
        }
      ],
      "stateMutability": "payable",
      "type": "function"
    },
    {
      "inputs": [
        {
          "internalType": "bytes32",
          "name": "",
          "type": "bytes32"
        }
      ],
      "name": "payments",
      "outputs": [
        {
          "internalType": "address",
          "name": "user",
          "type": "address"
        },
        {
          "internalType": "uint256",
          "name": "amount",
          "type": "uint256"
        },
        {
          "internalType": "string",
          "name": "serviceType",
          "type": "string"
        },
        {
          "internalType": "uint256",
          "name": "timestamp",
          "type": "uint256"
        },
        {
          "internalType": "bool",
          "name": "completed",
          "type": "bool"
        }
      ],
      "stateMutability": "view",
      "type": "function"
    },
    {
      "inputs": [
        {
          "internalType": "bytes32",
          "name": "_paymentId",
          "type": "bytes32"
        }
      ],
      "name": "refundPayment",
      "outputs": [],
      "stateMutability": "nonpayable",
      "type": "function"
    },
    {
      "inputs": [],
      "name": "remixFee",
      "outputs": [
        {
          "internalType": "uint256",
          "name": "",
          "type": "uint256"
        }
      ],
      "stateMutability": "view",
      "type": "function"
    },
    {
      "inputs": [],
      "name": "renounceOwnership",
      "outputs": [],
      "stateMutability": "nonpayable",
      "type": "function"
    },
    {
      "inputs": [],
      "name": "storageFee",
      "outputs": [
        {
          "internalType": "uint256",
          "name": "",
          "type": "uint256"
        }
      ],
      "stateMutability": "view",
      "type": "function"
    },
    {
      "inputs": [
        {
          "internalType": "address",
          "name": "newOwner",
          "type": "address"
        }
      ],
      "name": "transferOwnership",
      "outputs": [],
      "stateMutability": "nonpayable",
      "type": "function"
    },
    {
      "inputs": [
        {
          "internalType": "uint256",
          "name": "_aiFee",
          "type": "uint256"
        },
        {
          "internalType": "uint256",
          "name": "_storageFee",
          "type": "uint256"
        },
        {
          "internalType": "uint256",
          "name": "_mintFee",
          "type": "uint256"
        },
        {
          "internalType": "uint256",
          "name": "_remixFee",
          "type": "uint256"
        }
      ],
      "name": "updateFees",
      "outputs": [],
      "stateMutability": "nonpayable",
      "type": "function"
    },
    {
      "inputs": [
        {
          "internalType": "address",
          "name": "",
          "type": "address"
        }
      ],
      "name": "userBalances",
      "outputs": [
        {
          "internalType": "uint256",
          "name": "",
          "type": "uint256"
        }
      ],
      "stateMutability": "view",
      "type": "function"
    },
    {
      "inputs": [],
      "name": "withdrawFees",
      "outputs": [],
      "stateMutability": "nonpayable",
      "type": "function"
    }
  ],
  "transactionHash": "0xc3bb645644c51701c90f850867afd444324246ce7dceda57f63f95a9ec4684d7",
  "args": [],
  "numDeployments": 2,
  "solcInputHash": "ef2eaac6d45c867303c39d38a123205a",
  "bytecode": "0x6080604052660aa87bee53800060025566038d7ea4c6800060035566038d7ea4c680006004556601c6bf5263400060055560035460025461004091906100d6565b60065534801561004e575f5ffd5b50338061007457604051631e4fbdf760e01b81525f600482015260240160405180910390fd5b61007d81610087565b50600180556100fb565b5f80546001600160a01b038381166001600160a01b0319831681178455604051919092169283917f8be0079c531659141344cd1fd0a4f28419497f9722a3daafe3b4186f6b6457e09190a35050565b808201808211156100f557634e487b7160e01b5f52601160045260245ffd5b92915050565b61117c806101085f395ff3fe6080604052600436106100ef575f3560e01c8063773f0b1811610087578063d7837be011610057578063d7837be014610264578063de8f8b3f14610279578063e747657014610298578063f2fde38b146102ad575f5ffd5b8063773f0b18146101f75780638da5cb5b1461020c578063a9ce953a14610232578063c6616ba114610245575f5ffd5b806326224c64116100c257806326224c64146101835780633d558a21146101ae578063476343ee146101cf578063715018a6146101e3575f5ffd5b80630716326d146100f357806313966db51461012c578063164e37551461014f57806318274da414610164575b5f5ffd5b3480156100fe575f5ffd5b5061011261010d366004610d0b565b6102cc565b604051610123959493929190610d50565b60405180910390f35b348015610137575f5ffd5b5061014160045481565b604051908152602001610123565b34801561015a575f5ffd5b5061014160025481565b34801561016f575f5ffd5b5061014161017e366004610da3565b61038e565b34801561018e575f5ffd5b5061014161019d366004610e56565b60076020525f908152604090205481565b3480156101b9575f5ffd5b506101cd6101c8366004610d0b565b6105bc565b005b3480156101da575f5ffd5b506101cd6106e2565b3480156101ee575f5ffd5b506101cd6107a3565b348015610202575f5ffd5b5061014160035481565b348015610217575f5ffd5b505f546040516001600160a01b039091168152602001610123565b610141610240366004610da3565b6107b6565b348015610250575f5ffd5b506101cd61025f366004610e83565b6109a3565b34801561026f575f5ffd5b5061014160065481565b348015610284575f5ffd5b506101cd610293366004610d0b565b6109bf565b3480156102a3575f5ffd5b5061014160055481565b3480156102b8575f5ffd5b506101cd6102c7366004610e56565b610c2c565b60086020525f90815260409020805460018201546002830180546001600160a01b039093169391926102fd90610eb2565b80601f016020809104026020016040519081016040528092919081815260200182805461032990610eb2565b80156103745780601f1061034b57610100808354040283529160200191610374565b820191905f5260205f20905b81548152906001019060200180831161035757829003601f168201915b50505050600383015460049093015491929160ff16905085565b6040516c30b4afb3b2b732b930ba34b7b760991b60208201525f90602d0160405160208183030381529060405280519060200120826040516020016103d39190610f01565b60405160208183030381529060405280519060200120036103f657505060025490565b6040516673746f7261676560c81b602082015260270160405160208183030381529060405280519060200120826040516020016104339190610f01565b604051602081830303815290604052805190602001200361045657505060035490565b604051631b5a5b9d60e21b602082015260240160405160208183030381529060405280519060200120826040516020016104909190610f01565b60405160208183030381529060405280519060200120036104b357505060045490565b604051640e4cadad2f60db1b602082015260250160405160208183030381529060405280519060200120826040516020016104ee9190610f01565b604051602081830303815290604052805190602001200361051157505060055490565b6040516d61695f616e645f73746f7261676560901b6020820152602e0160405160208183030381529060405280519060200120826040516020016105559190610f01565b604051602081830303815290604052805190602001200361057857505060065490565b60405162461bcd60e51b8152602060048201526014602482015273556e6b6e6f776e2073657276696365207479706560601b60448201526064015b60405180910390fd5b6105c4610c66565b5f818152600860205260409020546001600160a01b031661061b5760405162461bcd60e51b815260206004820152601160248201527014185e5b595b9d081b9bdd08199bdd5b99607a1b60448201526064016105b3565b5f8181526008602052604090206004015460ff16156106785760405162461bcd60e51b815260206004820152601960248201527814d95c9d9a58d948185b1c9958591e4818dbdb5c1b195d1959603a1b60448201526064016105b3565b5f818152600860205260409081902060048101805460ff19166001179055805491516001600160a01b039092169183917f7b35762f349c90fbc5487e255491e38e9ff70ef1b20941a93601fc3ab26a99da916106d79160020190610f0c565b60405180910390a350565b6106ea610c66565b478061072f5760405162461bcd60e51b81526020600482015260146024820152734e6f2066756e647320746f20776974686472617760601b60448201526064016105b3565b5f80546040516001600160a01b039091169083908381818185875af1925050503d805f8114610779576040519150601f19603f3d011682016040523d82523d5f602084013e61077e565b606091505b505090508061079f5760405162461bcd60e51b81526004016105b390610f93565b5050565b6107ab610c66565b6107b45f610c92565b565b5f6107bf610ce1565b5f6107c98361038e565b9050803410156108125760405162461bcd60e51b8152602060048201526014602482015273125b9cdd59999a58da595b9d081c185e5b595b9d60621b60448201526064016105b3565b5f3384424460405160200161082a9493929190610fbc565b60408051808303601f19018152828252805160209182012060a084018352338452348285019081528484018981524260608701525f60808701819052838152600890945293909220845181546001600160a01b0319166001600160a01b039091161781559151600183015591519193509060028201906108aa908261103e565b50606082015160038201556080909101516004909101805460ff19169115159190911790553482101561094d575f6108e283346110f9565b6040519091505f90339083908381818185875af1925050503d805f8114610924576040519150601f19603f3d011682016040523d82523d5f602084013e610929565b606091505b505090508061094a5760405162461bcd60e51b81526004016105b390610f93565b50505b336001600160a01b03167f08ff71dfa71080c2a3b2472069ed760b8d6dab569264c3601cb6b6ad70d1373583868460405161098a9392919061111e565b60405180910390a291505061099e60018055565b919050565b6109ab610c66565b600293909355600391909155600455600555565b6109c7610c66565b6109cf610ce1565b5f818152600860209081526040808320815160a08101835281546001600160a01b031681526001820154938101939093526002810180549192840191610a1490610eb2565b80601f0160208091040260200160405190810160405280929190818152602001828054610a4090610eb2565b8015610a8b5780601f10610a6257610100808354040283529160200191610a8b565b820191905f5260205f20905b815481529060010190602001808311610a6e57829003601f168201915b50505091835250506003820154602082015260049091015460ff16151560409091015280519091506001600160a01b0316610afc5760405162461bcd60e51b815260206004820152601160248201527014185e5b595b9d081b9bdd08199bdd5b99607a1b60448201526064016105b3565b806080015115610b4a5760405162461bcd60e51b815260206004820152601960248201527814d95c9d9a58d948185b1c9958591e4818dbdb5c1b195d1959603a1b60448201526064016105b3565b805160208201516040515f926001600160a01b031691908381818185875af1925050503d805f8114610b97576040519150601f19603f3d011682016040523d82523d5f602084013e610b9c565b606091505b5050905080610bbd5760405162461bcd60e51b81526004016105b390610f93565b5f83815260086020908152604091829020600401805460ff1916600117905583518482015192519283526001600160a01b03169185917ff8590cd6b8c44be7a2bc57131f10e203ec5f7d7f2f761e1508a8cc964ecb9eb7910160405180910390a35050610c2960018055565b50565b610c34610c66565b6001600160a01b038116610c5d57604051631e4fbdf760e01b81525f60048201526024016105b3565b610c2981610c92565b5f546001600160a01b031633146107b45760405163118cdaa760e01b81523360048201526024016105b3565b5f80546001600160a01b038381166001600160a01b0319831681178455604051919092169283917f8be0079c531659141344cd1fd0a4f28419497f9722a3daafe3b4186f6b6457e09190a35050565b600260015403610d0457604051633ee5aeb560e01b815260040160405180910390fd5b6002600155565b5f60208284031215610d1b575f5ffd5b5035919050565b5f81518084528060208401602086015e5f602082860101526020601f19601f83011685010191505092915050565b60018060a01b038616815284602082015260a060408201525f610d7660a0830186610d22565b6060830194909452509015156080909101529392505050565b634e487b7160e01b5f52604160045260245ffd5b5f60208284031215610db3575f5ffd5b813567ffffffffffffffff811115610dc9575f5ffd5b8201601f81018413610dd9575f5ffd5b803567ffffffffffffffff811115610df357610df3610d8f565b604051601f8201601f19908116603f0116810167ffffffffffffffff81118282101715610e2257610e22610d8f565b604052818152828201602001861015610e39575f5ffd5b816020840160208301375f91810160200191909152949350505050565b5f60208284031215610e66575f5ffd5b81356001600160a01b0381168114610e7c575f5ffd5b9392505050565b5f5f5f5f60808587031215610e96575f5ffd5b5050823594602084013594506040840135936060013592509050565b600181811c90821680610ec657607f821691505b602082108103610ee457634e487b7160e01b5f52602260045260245ffd5b50919050565b5f81518060208401855e5f93019283525090919050565b5f610e7c8284610eea565b602081525f5f8354610f1d81610eb2565b806020860152600182165f8114610f3b5760018114610f5757610f88565b60ff1983166040870152604082151560051b8701019350610f88565b865f5260205f205f5b83811015610f7f57815488820160400152600190910190602001610f60565b87016040019450505b509195945050505050565b6020808252600f908201526e151c985b9cd9995c8819985a5b1959608a1b604082015260600190565b6bffffffffffffffffffffffff198560601b1681525f610fdf6014830186610eea565b9384525050602082015260400192915050565b601f82111561103957805f5260205f20601f840160051c810160208510156110175750805b601f840160051c820191505b81811015611036575f8155600101611023565b50505b505050565b815167ffffffffffffffff81111561105857611058610d8f565b61106c816110668454610eb2565b84610ff2565b6020601f82116001811461109e575f83156110875750848201515b5f19600385901b1c1916600184901b178455611036565b5f84815260208120601f198516915b828110156110cd57878501518255602094850194600190920191016110ad565b50848210156110ea57868401515f19600387901b60f8161c191681555b50505050600190811b01905550565b8181038181111561111857634e487b7160e01b5f52601160045260245ffd5b92915050565b838152606060208201525f6111366060830185610d22565b905082604083015294935050505056fea26469706673582212201b8902a440c61fb30c06faed44a1aaa079e0801ecb8577a01cc39c1d1ead79bd64736f6c634300081c0033",
  "devdoc": {
    "errors": {
      "OwnableInvalidOwner(address)": [
        {
          "details": "The owner is not a valid owner account. (eg. `address(0)`)"
        }
      ],
      "OwnableUnauthorizedAccount(address)": [
        {
          "details": "The caller account is not authorized to perform an operation."
        }
      ],
      "ReentrancyGuardReentrantCall()": [
        {
          "details": "Unauthorized reentrant call."
        }
      ]
    },
    "kind": "dev",
    "methods": {
      "completeService(bytes32)": {
        "details": "Complete a service"
      },
      "getServiceFee(string)": {
        "details": "Get fee for a service"
      },
      "owner()": {
        "details": "Returns the address of the current owner."
      },
      "payForService(string)": {
        "details": "Pay for a service"
      },
      "refundPayment(bytes32)": {
        "details": "Refund a payment"
      },
      "renounceOwnership()": {
        "details": "Leaves the contract without owner. It will not be possible to call `onlyOwner` functions. Can only be called by the current owner. NOTE: Renouncing ownership will leave the contract without an owner, thereby disabling any functionality that is only available to the owner."
      },
      "transferOwnership(address)": {
        "details": "Transfers ownership of the contract to a new account (`newOwner`). Can only be called by the current owner."
      },
      "updateFees(uint256,uint256,uint256,uint256)": {
        "details": "Update service fees (owner only)"
      },
      "withdrawFees()": {
        "details": "Withdraw collected fees"
      }
    },
    "version": 1
  },
  "userdoc": {
    "kind": "user",
    "methods": {},
    "version": 1
  },
  "storageLayout": {
    "storage": [
      {
        "astId": 8,
        "contract": "contracts/PaymentHandler.sol:PaymentHandler",
        "label": "_owner",
        "offset": 0,
        "slot": "0",
        "type": "t_address"
      },
      {
        "astId": 188,
        "contract": "contracts/PaymentHandler.sol:PaymentHandler",
        "label": "_status",
        "offset": 0,
        "slot": "1",
        "type": "t_uint256"
      },
      {
        "astId": 1003,
        "contract": "contracts/PaymentHandler.sol:PaymentHandler",
        "label": "aiGenerationFee",
        "offset": 0,
        "slot": "2",
        "type": "t_uint256"
      },
      {
        "astId": 1006,
        "contract": "contracts/PaymentHandler.sol:PaymentHandler",
        "label": "storageFee",
        "offset": 0,
        "slot": "3",
        "type": "t_uint256"
      },
      {
        "astId": 1009,
        "contract": "contracts/PaymentHandler.sol:PaymentHandler",
        "label": "mintFee",
        "offset": 0,
        "slot": "4",
        "type": "t_uint256"
      },
      {
        "astId": 1012,
        "contract": "contracts/PaymentHandler.sol:PaymentHandler",
        "label": "remixFee",
        "offset": 0,
        "slot": "5",
        "type": "t_uint256"
      },
      {
        "astId": 1017,
        "contract": "contracts/PaymentHandler.sol:PaymentHandler",
        "label": "ai_and_storage_fee",
        "offset": 0,
        "slot": "6",
        "type": "t_uint256"
      },
      {
        "astId": 1021,
        "contract": "contracts/PaymentHandler.sol:PaymentHandler",
        "label": "userBalances",
        "offset": 0,
        "slot": "7",
        "type": "t_mapping(t_address,t_uint256)"
      },
      {
        "astId": 1026,
        "contract": "contracts/PaymentHandler.sol:PaymentHandler",
        "label": "payments",
        "offset": 0,
        "slot": "8",
        "type": "t_mapping(t_bytes32,t_struct(ServicePayment)1000_storage)"
      }
    ],
    "types": {
      "t_address": {
        "encoding": "inplace",
        "label": "address",
        "numberOfBytes": "20"
      },
      "t_bool": {
        "encoding": "inplace",
        "label": "bool",
        "numberOfBytes": "1"
      },
      "t_bytes32": {
        "encoding": "inplace",
        "label": "bytes32",
        "numberOfBytes": "32"
      },
      "t_mapping(t_address,t_uint256)": {
        "encoding": "mapping",
        "key": "t_address",
        "label": "mapping(address => uint256)",
        "numberOfBytes": "32",
        "value": "t_uint256"
      },
      "t_mapping(t_bytes32,t_struct(ServicePayment)1000_storage)": {
        "encoding": "mapping",
        "key": "t_bytes32",
        "label": "mapping(bytes32 => struct PaymentHandler.ServicePayment)",
        "numberOfBytes": "32",
        "value": "t_struct(ServicePayment)1000_storage"
      },
      "t_string_storage": {
        "encoding": "bytes",
        "label": "string",
        "numberOfBytes": "32"
      },
      "t_struct(ServicePayment)1000_storage": {
        "encoding": "inplace",
        "label": "struct PaymentHandler.ServicePayment",
        "members": [
          {
            "astId": 991,
            "contract": "contracts/PaymentHandler.sol:PaymentHandler",
            "label": "user",
            "offset": 0,
            "slot": "0",
            "type": "t_address"
          },
          {
            "astId": 993,
            "contract": "contracts/PaymentHandler.sol:PaymentHandler",
            "label": "amount",
            "offset": 0,
            "slot": "1",
            "type": "t_uint256"
          },
          {
            "astId": 995,
            "contract": "contracts/PaymentHandler.sol:PaymentHandler",
            "label": "serviceType",
            "offset": 0,
            "slot": "2",
            "type": "t_string_storage"
          },
          {
            "astId": 997,
            "contract": "contracts/PaymentHandler.sol:PaymentHandler",
            "label": "timestamp",
            "offset": 0,
            "slot": "3",
            "type": "t_uint256"
          },
          {
            "astId": 999,
            "contract": "contracts/PaymentHandler.sol:PaymentHandler",
            "label": "completed",
            "offset": 0,
            "slot": "4",
            "type": "t_bool"
          }
        ],
        "numberOfBytes": "160"
      },
      "t_uint256": {
        "encoding": "inplace",
        "label": "uint256",
        "numberOfBytes": "32"
      }
    }
  }
}