{
  "address": "0x75Cae856B727fA0B99A3961B820a6aFbdc10626c",
  "abi": [
    {
      "inputs": [],
      "stateMutability": "nonpayable",
      "type": "constructor"
    },
    {
      "inputs": [
        {
          "internalType": "address",
          "name": "owner",
          "type": "address"
        }
      ],
      "name": "OwnableInvalidOwner",
      "type": "error"
    },
    {
      "inputs": [
        {
          "internalType": "address",
          "name": "account",
          "type": "address"
        }
      ],
      "name": "OwnableUnauthorizedAccount",
      "type": "error"
    },
    {
      "inputs": [],
      "name": "ReentrancyGuardReentrantCall",
      "type": "error"
    },
    {
      "anonymous": false,
      "inputs": [
        {
          "indexed": true,
          "internalType": "address",
          "name": "previousOwner",
          "type": "address"
        },
        {
          "indexed": true,
          "internalType": "address",
          "name": "newOwner",
          "type": "address"
        }
      ],
      "name": "OwnershipTransferred",
      "type": "event"
    },
    {
      "anonymous": false,
      "inputs": [
        {
          "indexed": true,
          "internalType": "address",
          "name": "user",
          "type": "address"
        },
        {
          "indexed": false,
          "internalType": "uint256",
          "name": "amount",
          "type": "uint256"
        },
        {
          "indexed": false,
          "internalType": "string",
          "name": "serviceType",
          "type": "string"
        },
        {
          "indexed": false,
          "internalType": "bytes32",
          "name": "paymentId",
          "type": "bytes32"
        }
      ],
      "name": "PaymentReceived",
      "type": "event"
    },
    {
      "anonymous": false,
      "inputs": [
        {
          "indexed": true,
          "internalType": "bytes32",
          "name": "paymentId",
          "type": "bytes32"
        },
        {
          "indexed": true,
          "internalType": "address",
          "name": "user",
          "type": "address"
        },
        {
          "indexed": false,
          "internalType": "uint256",
          "name": "amount",
          "type": "uint256"
        }
      ],
      "name": "RefundIssued",
      "type": "event"
    },
    {
      "anonymous": false,
      "inputs": [
        {
          "indexed": true,
          "internalType": "bytes32",
          "name": "paymentId",
          "type": "bytes32"
        },
        {
          "indexed": true,
          "internalType": "address",
          "name": "user",
          "type": "address"
        },
        {
          "indexed": false,
          "internalType": "string",
          "name": "serviceType",
          "type": "string"
        }
      ],
      "name": "ServiceCompleted",
      "type": "event"
    },
    {
      "inputs": [],
      "name": "aiGenerationFee",
      "outputs": [
        {
          "internalType": "uint256",
          "name": "",
          "type": "uint256"
        }
      ],
      "stateMutability": "view",
      "type": "function"
    },
    {
      "inputs": [
        {
          "internalType": "bytes32",
          "name": "_paymentId",
          "type": "bytes32"
        }
      ],
      "name": "completeService",
      "outputs": [],
      "stateMutability": "nonpayable",
      "type": "function"
    },
    {
      "inputs": [
        {
          "internalType": "string",
          "name": "_serviceType",
          "type": "string"
        }
      ],
      "name": "getServiceFee",
      "outputs": [
        {
          "internalType": "uint256",
          "name": "",
          "type": "uint256"
        }
      ],
      "stateMutability": "view",
      "type": "function"
    },
    {
      "inputs": [],
      "name": "mintFee",
      "outputs": [
        {
          "internalType": "uint256",
          "name": "",
          "type": "uint256"
        }
      ],
      "stateMutability": "view",
      "type": "function"
    },
    {
      "inputs": [],
      "name": "owner",
      "outputs": [
        {
          "internalType": "address",
          "name": "",
          "type": "address"
        }
      ],
      "stateMutability": "view",
      "type": "function"
    },
    {
      "inputs": [
        {
          "internalType": "string",
          "name": "_serviceType",
          "type": "string"
        }
      ],
      "name": "payForService",
      "outputs": [
        {
          "internalType": "bytes32",
          "name": "",
          "type": "bytes32"
        }
      ],
      "stateMutability": "payable",
      "type": "function"
    },
    {
      "inputs": [
        {
          "internalType": "bytes32",
          "name": "",
          "type": "bytes32"
        }
      ],
      "name": "payments",
      "outputs": [
        {
          "internalType": "address",
          "name": "user",
          "type": "address"
        },
        {
          "internalType": "uint256",
          "name": "amount",
          "type": "uint256"
        },
        {
          "internalType": "string",
          "name": "serviceType",
          "type": "string"
        },
        {
          "internalType": "uint256",
          "name": "timestamp",
          "type": "uint256"
        },
        {
          "internalType": "bool",
          "name": "completed",
          "type": "bool"
        }
      ],
      "stateMutability": "view",
      "type": "function"
    },
    {
      "inputs": [
        {
          "internalType": "bytes32",
          "name": "_paymentId",
          "type": "bytes32"
        }
      ],
      "name": "refundPayment",
      "outputs": [],
      "stateMutability": "nonpayable",
      "type": "function"
    },
    {
      "inputs": [],
      "name": "remixFee",
      "outputs": [
        {
          "internalType": "uint256",
          "name": "",
          "type": "uint256"
        }
      ],
      "stateMutability": "view",
      "type": "function"
    },
    {
      "inputs": [],
      "name": "renounceOwnership",
      "outputs": [],
      "stateMutability": "nonpayable",
      "type": "function"
    },
    {
      "inputs": [],
      "name": "storageFee",
      "outputs": [
        {
          "internalType": "uint256",
          "name": "",
          "type": "uint256"
        }
      ],
      "stateMutability": "view",
      "type": "function"
    },
    {
      "inputs": [
        {
          "internalType": "address",
          "name": "newOwner",
          "type": "address"
        }
      ],
      "name": "transferOwnership",
      "outputs": [],
      "stateMutability": "nonpayable",
      "type": "function"
    },
    {
      "inputs": [
        {
          "internalType": "uint256",
          "name": "_aiFee",
          "type": "uint256"
        },
        {
          "internalType": "uint256",
          "name": "_storageFee",
          "type": "uint256"
        },
        {
          "internalType": "uint256",
          "name": "_mintFee",
          "type": "uint256"
        },
        {
          "internalType": "uint256",
          "name": "_remixFee",
          "type": "uint256"
        }
      ],
      "name": "updateFees",
      "outputs": [],
      "stateMutability": "nonpayable",
      "type": "function"
    },
    {
      "inputs": [
        {
          "internalType": "address",
          "name": "",
          "type": "address"
        }
      ],
      "name": "userBalances",
      "outputs": [
        {
          "internalType": "uint256",
          "name": "",
          "type": "uint256"
        }
      ],
      "stateMutability": "view",
      "type": "function"
    },
    {
      "inputs": [],
      "name": "withdrawFees",
      "outputs": [],
      "stateMutability": "nonpayable",
      "type": "function"
    }
  ],
  "transactionHash": "0x2920b42b91f68b4e46531c02bf3461958a9bd236f5adf143583831138489dd54",
  "args": [],
  "numDeployments": 1,
  "solcInputHash": "0d3c3d3094cc2c6663935527f2ccb71d",
  "bytecode": "0x6080604052660110d9316ec00060025565b5e620f4800060035566038d7ea4c680006004556601c6bf526340006005553480156039575f5ffd5b503380605e57604051631e4fbdf760e01b81525f600482015260240160405180910390fd5b606581606e565b506001805560bd565b5f80546001600160a01b038381166001600160a01b0319831681178455604051919092169283917f8be0079c531659141344cd1fd0a4f28419497f9722a3daafe3b4186f6b6457e09190a35050565b6110f5806100ca5f395ff3fe6080604052600436106100e4575f3560e01c8063715018a611610087578063c6616ba111610057578063c6616ba11461023a578063de8f8b3f14610259578063e747657014610278578063f2fde38b1461028d575f5ffd5b8063715018a6146101d8578063773f0b18146101ec5780638da5cb5b14610201578063a9ce953a14610227575f5ffd5b806318274da4116100c257806318274da41461015957806326224c64146101785780633d558a21146101a3578063476343ee146101c4575f5ffd5b80630716326d146100e857806313966db514610121578063164e375514610144575b5f5ffd5b3480156100f3575f5ffd5b50610107610102366004610c84565b6102ac565b604051610118959493929190610cc9565b60405180910390f35b34801561012c575f5ffd5b5061013660045481565b604051908152602001610118565b34801561014f575f5ffd5b5061013660025481565b348015610164575f5ffd5b50610136610173366004610d1c565b61036e565b348015610183575f5ffd5b50610136610192366004610dcf565b60066020525f908152604090205481565b3480156101ae575f5ffd5b506101c26101bd366004610c84565b610535565b005b3480156101cf575f5ffd5b506101c261065b565b3480156101e3575f5ffd5b506101c261071c565b3480156101f7575f5ffd5b5061013660035481565b34801561020c575f5ffd5b505f546040516001600160a01b039091168152602001610118565b610136610235366004610d1c565b61072f565b348015610245575f5ffd5b506101c2610254366004610dfc565b61091c565b348015610264575f5ffd5b506101c2610273366004610c84565b610938565b348015610283575f5ffd5b5061013660055481565b348015610298575f5ffd5b506101c26102a7366004610dcf565b610ba5565b60076020525f90815260409020805460018201546002830180546001600160a01b039093169391926102dd90610e2b565b80601f016020809104026020016040519081016040528092919081815260200182805461030990610e2b565b80156103545780601f1061032b57610100808354040283529160200191610354565b820191905f5260205f20905b81548152906001019060200180831161033757829003601f168201915b50505050600383015460049093015491929160ff16905085565b6040516c30b4afb3b2b732b930ba34b7b760991b60208201525f90602d0160405160208183030381529060405280519060200120826040516020016103b39190610e7a565b60405160208183030381529060405280519060200120036103d657505060025490565b6040516673746f7261676560c81b602082015260270160405160208183030381529060405280519060200120826040516020016104139190610e7a565b604051602081830303815290604052805190602001200361043657505060035490565b604051631b5a5b9d60e21b602082015260240160405160208183030381529060405280519060200120826040516020016104709190610e7a565b604051602081830303815290604052805190602001200361049357505060045490565b604051640e4cadad2f60db1b602082015260250160405160208183030381529060405280519060200120826040516020016104ce9190610e7a565b60405160208183030381529060405280519060200120036104f157505060055490565b60405162461bcd60e51b8152602060048201526014602482015273556e6b6e6f776e2073657276696365207479706560601b60448201526064015b60405180910390fd5b61053d610bdf565b5f818152600760205260409020546001600160a01b03166105945760405162461bcd60e51b815260206004820152601160248201527014185e5b595b9d081b9bdd08199bdd5b99607a1b604482015260640161052c565b5f8181526007602052604090206004015460ff16156105f15760405162461bcd60e51b815260206004820152601960248201527814d95c9d9a58d948185b1c9958591e4818dbdb5c1b195d1959603a1b604482015260640161052c565b5f818152600760205260409081902060048101805460ff19166001179055805491516001600160a01b039092169183917f7b35762f349c90fbc5487e255491e38e9ff70ef1b20941a93601fc3ab26a99da916106509160020190610e85565b60405180910390a350565b610663610bdf565b47806106a85760405162461bcd60e51b81526020600482015260146024820152734e6f2066756e647320746f20776974686472617760601b604482015260640161052c565b5f80546040516001600160a01b039091169083908381818185875af1925050503d805f81146106f2576040519150601f19603f3d011682016040523d82523d5f602084013e6106f7565b606091505b50509050806107185760405162461bcd60e51b815260040161052c90610f0c565b5050565b610724610bdf565b61072d5f610c0b565b565b5f610738610c5a565b5f6107428361036e565b90508034101561078b5760405162461bcd60e51b8152602060048201526014602482015273125b9cdd59999a58da595b9d081c185e5b595b9d60621b604482015260640161052c565b5f338442446040516020016107a39493929190610f35565b60408051808303601f19018152828252805160209182012060a084018352338452348285019081528484018981524260608701525f60808701819052838152600790945293909220845181546001600160a01b0319166001600160a01b039091161781559151600183015591519193509060028201906108239082610fb7565b50606082015160038201556080909101516004909101805460ff1916911515919091179055348210156108c6575f61085b8334611072565b6040519091505f90339083908381818185875af1925050503d805f811461089d576040519150601f19603f3d011682016040523d82523d5f602084013e6108a2565b606091505b50509050806108c35760405162461bcd60e51b815260040161052c90610f0c565b50505b336001600160a01b03167f08ff71dfa71080c2a3b2472069ed760b8d6dab569264c3601cb6b6ad70d1373583868460405161090393929190611097565b60405180910390a291505061091760018055565b919050565b610924610bdf565b600293909355600391909155600455600555565b610940610bdf565b610948610c5a565b5f818152600760209081526040808320815160a08101835281546001600160a01b03168152600182015493810193909352600281018054919284019161098d90610e2b565b80601f01602080910402602001604051908101604052809291908181526020018280546109b990610e2b565b8015610a045780601f106109db57610100808354040283529160200191610a04565b820191905f5260205f20905b8154815290600101906020018083116109e757829003601f168201915b50505091835250506003820154602082015260049091015460ff16151560409091015280519091506001600160a01b0316610a755760405162461bcd60e51b815260206004820152601160248201527014185e5b595b9d081b9bdd08199bdd5b99607a1b604482015260640161052c565b806080015115610ac35760405162461bcd60e51b815260206004820152601960248201527814d95c9d9a58d948185b1c9958591e4818dbdb5c1b195d1959603a1b604482015260640161052c565b805160208201516040515f926001600160a01b031691908381818185875af1925050503d805f8114610b10576040519150601f19603f3d011682016040523d82523d5f602084013e610b15565b606091505b5050905080610b365760405162461bcd60e51b815260040161052c90610f0c565b5f83815260076020908152604091829020600401805460ff1916600117905583518482015192519283526001600160a01b03169185917ff8590cd6b8c44be7a2bc57131f10e203ec5f7d7f2f761e1508a8cc964ecb9eb7910160405180910390a35050610ba260018055565b50565b610bad610bdf565b6001600160a01b038116610bd657604051631e4fbdf760e01b81525f600482015260240161052c565b610ba281610c0b565b5f546001600160a01b0316331461072d5760405163118cdaa760e01b815233600482015260240161052c565b5f80546001600160a01b038381166001600160a01b0319831681178455604051919092169283917f8be0079c531659141344cd1fd0a4f28419497f9722a3daafe3b4186f6b6457e09190a35050565b600260015403610c7d57604051633ee5aeb560e01b815260040160405180910390fd5b6002600155565b5f60208284031215610c94575f5ffd5b5035919050565b5f81518084528060208401602086015e5f602082860101526020601f19601f83011685010191505092915050565b60018060a01b038616815284602082015260a060408201525f610cef60a0830186610c9b565b6060830194909452509015156080909101529392505050565b634e487b7160e01b5f52604160045260245ffd5b5f60208284031215610d2c575f5ffd5b813567ffffffffffffffff811115610d42575f5ffd5b8201601f81018413610d52575f5ffd5b803567ffffffffffffffff811115610d6c57610d6c610d08565b604051601f8201601f19908116603f0116810167ffffffffffffffff81118282101715610d9b57610d9b610d08565b604052818152828201602001861015610db2575f5ffd5b816020840160208301375f91810160200191909152949350505050565b5f60208284031215610ddf575f5ffd5b81356001600160a01b0381168114610df5575f5ffd5b9392505050565b5f5f5f5f60808587031215610e0f575f5ffd5b5050823594602084013594506040840135936060013592509050565b600181811c90821680610e3f57607f821691505b602082108103610e5d57634e487b7160e01b5f52602260045260245ffd5b50919050565b5f81518060208401855e5f93019283525090919050565b5f610df58284610e63565b602081525f5f8354610e9681610e2b565b806020860152600182165f8114610eb45760018114610ed057610f01565b60ff1983166040870152604082151560051b8701019350610f01565b865f5260205f205f5b83811015610ef857815488820160400152600190910190602001610ed9565b87016040019450505b509195945050505050565b6020808252600f908201526e151c985b9cd9995c8819985a5b1959608a1b604082015260600190565b6bffffffffffffffffffffffff198560601b1681525f610f586014830186610e63565b9384525050602082015260400192915050565b601f821115610fb257805f5260205f20601f840160051c81016020851015610f905750805b601f840160051c820191505b81811015610faf575f8155600101610f9c565b50505b505050565b815167ffffffffffffffff811115610fd157610fd1610d08565b610fe581610fdf8454610e2b565b84610f6b565b6020601f821160018114611017575f83156110005750848201515b5f19600385901b1c1916600184901b178455610faf565b5f84815260208120601f198516915b828110156110465787850151825560209485019460019092019101611026565b508482101561106357868401515f19600387901b60f8161c191681555b50505050600190811b01905550565b8181038181111561109157634e487b7160e01b5f52601160045260245ffd5b92915050565b838152606060208201525f6110af6060830185610c9b565b905082604083015294935050505056fea2646970667358221220328eebfed4c89fb83432d87663b128598fad2b301014c38c17b029895dadfb2464736f6c634300081c0033",
  "devdoc": {
    "errors": {
      "OwnableInvalidOwner(address)": [
        {
          "details": "The owner is not a valid owner account. (eg. `address(0)`)"
        }
      ],
      "OwnableUnauthorizedAccount(address)": [
        {
          "details": "The caller account is not authorized to perform an operation."
        }
      ],
      "ReentrancyGuardReentrantCall()": [
        {
          "details": "Unauthorized reentrant call."
        }
      ]
    },
    "kind": "dev",
    "methods": {
      "completeService(bytes32)": {
        "details": "Complete a service"
      },
      "getServiceFee(string)": {
        "details": "Get fee for a service"
      },
      "owner()": {
        "details": "Returns the address of the current owner."
      },
      "payForService(string)": {
        "details": "Pay for a service"
      },
      "refundPayment(bytes32)": {
        "details": "Refund a payment"
      },
      "renounceOwnership()": {
        "details": "Leaves the contract without owner. It will not be possible to call `onlyOwner` functions. Can only be called by the current owner. NOTE: Renouncing ownership will leave the contract without an owner, thereby disabling any functionality that is only available to the owner."
      },
      "transferOwnership(address)": {
        "details": "Transfers ownership of the contract to a new account (`newOwner`). Can only be called by the current owner."
      },
      "updateFees(uint256,uint256,uint256,uint256)": {
        "details": "Update service fees (owner only)"
      },
      "withdrawFees()": {
        "details": "Withdraw collected fees"
      }
    },
    "version": 1
  },
  "userdoc": {
    "kind": "user",
    "methods": {},
    "version": 1
  },
  "storageLayout": {
    "storage": [
      {
        "astId": 8,
        "contract": "contracts/PaymentHandler.sol:PaymentHandler",
        "label": "_owner",
        "offset": 0,
        "slot": "0",
        "type": "t_address"
      },
      {
        "astId": 188,
        "contract": "contracts/PaymentHandler.sol:PaymentHandler",
        "label": "_status",
        "offset": 0,
        "slot": "1",
        "type": "t_uint256"
      },
      {
        "astId": 1003,
        "contract": "contracts/PaymentHandler.sol:PaymentHandler",
        "label": "aiGenerationFee",
        "offset": 0,
        "slot": "2",
        "type": "t_uint256"
      },
      {
        "astId": 1006,
        "contract": "contracts/PaymentHandler.sol:PaymentHandler",
        "label": "storageFee",
        "offset": 0,
        "slot": "3",
        "type": "t_uint256"
      },
      {
        "astId": 1009,
        "contract": "contracts/PaymentHandler.sol:PaymentHandler",
        "label": "mintFee",
        "offset": 0,
        "slot": "4",
        "type": "t_uint256"
      },
      {
        "astId": 1012,
        "contract": "contracts/PaymentHandler.sol:PaymentHandler",
        "label": "remixFee",
        "offset": 0,
        "slot": "5",
        "type": "t_uint256"
      },
      {
        "astId": 1016,
        "contract": "contracts/PaymentHandler.sol:PaymentHandler",
        "label": "userBalances",
        "offset": 0,
        "slot": "6",
        "type": "t_mapping(t_address,t_uint256)"
      },
      {
        "astId": 1021,
        "contract": "contracts/PaymentHandler.sol:PaymentHandler",
        "label": "payments",
        "offset": 0,
        "slot": "7",
        "type": "t_mapping(t_bytes32,t_struct(ServicePayment)1000_storage)"
      }
    ],
    "types": {
      "t_address": {
        "encoding": "inplace",
        "label": "address",
        "numberOfBytes": "20"
      },
      "t_bool": {
        "encoding": "inplace",
        "label": "bool",
        "numberOfBytes": "1"
      },
      "t_bytes32": {
        "encoding": "inplace",
        "label": "bytes32",
        "numberOfBytes": "32"
      },
      "t_mapping(t_address,t_uint256)": {
        "encoding": "mapping",
        "key": "t_address",
        "label": "mapping(address => uint256)",
        "numberOfBytes": "32",
        "value": "t_uint256"
      },
      "t_mapping(t_bytes32,t_struct(ServicePayment)1000_storage)": {
        "encoding": "mapping",
        "key": "t_bytes32",
        "label": "mapping(bytes32 => struct PaymentHandler.ServicePayment)",
        "numberOfBytes": "32",
        "value": "t_struct(ServicePayment)1000_storage"
      },
      "t_string_storage": {
        "encoding": "bytes",
        "label": "string",
        "numberOfBytes": "32"
      },
      "t_struct(ServicePayment)1000_storage": {
        "encoding": "inplace",
        "label": "struct PaymentHandler.ServicePayment",
        "members": [
          {
            "astId": 991,
            "contract": "contracts/PaymentHandler.sol:PaymentHandler",
            "label": "user",
            "offset": 0,
            "slot": "0",
            "type": "t_address"
          },
          {
            "astId": 993,
            "contract": "contracts/PaymentHandler.sol:PaymentHandler",
            "label": "amount",
            "offset": 0,
            "slot": "1",
            "type": "t_uint256"
          },
          {
            "astId": 995,
            "contract": "contracts/PaymentHandler.sol:PaymentHandler",
            "label": "serviceType",
            "offset": 0,
            "slot": "2",
            "type": "t_string_storage"
          },
          {
            "astId": 997,
            "contract": "contracts/PaymentHandler.sol:PaymentHandler",
            "label": "timestamp",
            "offset": 0,
            "slot": "3",
            "type": "t_uint256"
          },
          {
            "astId": 999,
            "contract": "contracts/PaymentHandler.sol:PaymentHandler",
            "label": "completed",
            "offset": 0,
            "slot": "4",
            "type": "t_bool"
          }
        ],
        "numberOfBytes": "160"
      },
      "t_uint256": {
        "encoding": "inplace",
        "label": "uint256",
        "numberOfBytes": "32"
      }
    }
  }
}